{
  "_format": "hh-sol-artifact-1",
  "contractName": "REXOneWayMarket",
  "sourceName": "contracts/REXOneWayMarket.sol",
  "abi": [
    {
      "inputs": [
        {
          "internalType": "address",
          "name": "_owner",
          "type": "address"
        },
        {
          "internalType": "contract ISuperfluid",
          "name": "_host",
          "type": "address"
        },
        {
          "internalType": "contract IConstantFlowAgreementV1",
          "name": "_cfa",
          "type": "address"
        },
        {
          "internalType": "contract IInstantDistributionAgreementV1",
          "name": "_ida",
          "type": "address"
        },
        {
          "internalType": "string",
          "name": "_registrationKey",
          "type": "string"
        },
        {
          "internalType": "contract IREXReferral",
          "name": "_rexReferral",
          "type": "address"
        }
      ],
      "stateMutability": "nonpayable",
      "type": "constructor"
    },
    {
      "anonymous": false,
      "inputs": [
        {
          "indexed": false,
          "internalType": "uint256",
          "name": "totalAmount",
          "type": "uint256"
        },
        {
          "indexed": false,
          "internalType": "uint256",
          "name": "feeCollected",
          "type": "uint256"
        },
        {
          "indexed": false,
          "internalType": "address",
          "name": "token",
          "type": "address"
        }
      ],
      "name": "Distribution",
      "type": "event"
    },
    {
      "anonymous": false,
      "inputs": [
        {
          "indexed": true,
          "internalType": "address",
          "name": "previousOwner",
          "type": "address"
        },
        {
          "indexed": true,
          "internalType": "address",
          "name": "newOwner",
          "type": "address"
        }
      ],
      "name": "OwnershipTransferred",
      "type": "event"
    },
    {
      "inputs": [
        {
          "internalType": "contract ISuperToken",
          "name": "_token",
          "type": "address"
        },
        {
          "internalType": "uint128",
          "name": "_feeRate",
          "type": "uint128"
        },
        {
          "internalType": "uint256",
          "name": "_emissionRate",
          "type": "uint256"
        },
        {
          "internalType": "uint256",
          "name": "_requestId",
          "type": "uint256"
        },
        {
          "internalType": "uint128",
          "name": "_shareScaler",
          "type": "uint128"
        }
      ],
      "name": "addOutputPool",
      "outputs": [],
      "stateMutability": "nonpayable",
      "type": "function"
    },
    {
      "inputs": [
        {
          "internalType": "contract ISuperToken",
          "name": "_superToken",
          "type": "address"
        },
        {
          "internalType": "address",
          "name": "_agreementClass",
          "type": "address"
        },
        {
          "internalType": "bytes32",
          "name": "",
          "type": "bytes32"
        },
        {
          "internalType": "bytes",
          "name": "_agreementData",
          "type": "bytes"
        },
        {
          "internalType": "bytes",
          "name": "",
          "type": "bytes"
        },
        {
          "internalType": "bytes",
          "name": "_ctx",
          "type": "bytes"
        }
      ],
      "name": "afterAgreementCreated",
      "outputs": [
        {
          "internalType": "bytes",
          "name": "_newCtx",
          "type": "bytes"
        }
      ],
      "stateMutability": "nonpayable",
      "type": "function"
    },
    {
      "inputs": [
        {
          "internalType": "contract ISuperToken",
          "name": "_superToken",
          "type": "address"
        },
        {
          "internalType": "address",
          "name": "_agreementClass",
          "type": "address"
        },
        {
          "internalType": "bytes32",
          "name": "",
          "type": "bytes32"
        },
        {
          "internalType": "bytes",
          "name": "_agreementData",
          "type": "bytes"
        },
        {
          "internalType": "bytes",
          "name": "_cbdata",
          "type": "bytes"
        },
        {
          "internalType": "bytes",
          "name": "_ctx",
          "type": "bytes"
        }
      ],
      "name": "afterAgreementTerminated",
      "outputs": [
        {
          "internalType": "bytes",
          "name": "_newCtx",
          "type": "bytes"
        }
      ],
      "stateMutability": "nonpayable",
      "type": "function"
    },
    {
      "inputs": [
        {
          "internalType": "contract ISuperToken",
          "name": "_superToken",
          "type": "address"
        },
        {
          "internalType": "address",
          "name": "_agreementClass",
          "type": "address"
        },
        {
          "internalType": "bytes32",
          "name": "",
          "type": "bytes32"
        },
        {
          "internalType": "bytes",
          "name": "_agreementData",
          "type": "bytes"
        },
        {
          "internalType": "bytes",
          "name": "_cbdata",
          "type": "bytes"
        },
        {
          "internalType": "bytes",
          "name": "_ctx",
          "type": "bytes"
        }
      ],
      "name": "afterAgreementUpdated",
      "outputs": [
        {
          "internalType": "bytes",
          "name": "_newCtx",
          "type": "bytes"
        }
      ],
      "stateMutability": "nonpayable",
      "type": "function"
    },
    {
      "inputs": [
        {
          "internalType": "contract ISuperToken",
          "name": "_superToken",
          "type": "address"
        },
        {
          "internalType": "address",
          "name": "_agreementClass",
          "type": "address"
        },
        {
          "internalType": "bytes32",
          "name": "",
          "type": "bytes32"
        },
        {
          "internalType": "bytes",
          "name": "_agreementData",
          "type": "bytes"
        },
        {
          "internalType": "bytes",
          "name": "",
          "type": "bytes"
        }
      ],
      "name": "beforeAgreementCreated",
      "outputs": [
        {
          "internalType": "bytes",
          "name": "_cbdata",
          "type": "bytes"
        }
      ],
      "stateMutability": "view",
      "type": "function"
    },
    {
      "inputs": [
        {
          "internalType": "contract ISuperToken",
          "name": "_superToken",
          "type": "address"
        },
        {
          "internalType": "address",
          "name": "_agreementClass",
          "type": "address"
        },
        {
          "internalType": "bytes32",
          "name": "",
          "type": "bytes32"
        },
        {
          "internalType": "bytes",
          "name": "_agreementData",
          "type": "bytes"
        },
        {
          "internalType": "bytes",
          "name": "",
          "type": "bytes"
        }
      ],
      "name": "beforeAgreementTerminated",
      "outputs": [
        {
          "internalType": "bytes",
          "name": "_cbdata",
          "type": "bytes"
        }
      ],
      "stateMutability": "view",
      "type": "function"
    },
    {
      "inputs": [
        {
          "internalType": "contract ISuperToken",
          "name": "_superToken",
          "type": "address"
        },
        {
          "internalType": "address",
          "name": "_agreementClass",
          "type": "address"
        },
        {
          "internalType": "bytes32",
          "name": "",
          "type": "bytes32"
        },
        {
          "internalType": "bytes",
          "name": "_agreementData",
          "type": "bytes"
        },
        {
          "internalType": "bytes",
          "name": "_ctx",
          "type": "bytes"
        }
      ],
      "name": "beforeAgreementUpdated",
      "outputs": [
        {
          "internalType": "bytes",
          "name": "_cbdata",
          "type": "bytes"
        }
      ],
      "stateMutability": "view",
      "type": "function"
    },
    {
      "inputs": [
        {
          "internalType": "bytes",
          "name": "ctx",
          "type": "bytes"
        }
      ],
      "name": "distribute",
      "outputs": [
        {
          "internalType": "bytes",
          "name": "newCtx",
          "type": "bytes"
        }
      ],
      "stateMutability": "nonpayable",
      "type": "function"
    },
    {
      "inputs": [
        {
          "internalType": "address",
          "name": "streamer",
          "type": "address"
        }
      ],
      "name": "emergencyCloseStream",
      "outputs": [],
      "stateMutability": "nonpayable",
      "type": "function"
    },
    {
      "inputs": [],
      "name": "emergencyDrain",
      "outputs": [],
      "stateMutability": "nonpayable",
      "type": "function"
    },
    {
      "inputs": [
        {
          "internalType": "uint256",
          "name": "_requestId",
          "type": "uint256"
        }
      ],
      "name": "getCurrentValue",
      "outputs": [
        {
          "internalType": "bool",
          "name": "_ifRetrieve",
          "type": "bool"
        },
        {
          "internalType": "uint256",
          "name": "_value",
          "type": "uint256"
        },
        {
          "internalType": "uint256",
          "name": "_timestampRetrieved",
          "type": "uint256"
        }
      ],
      "stateMutability": "view",
      "type": "function"
    },
    {
      "inputs": [
        {
          "internalType": "uint32",
          "name": "_index",
          "type": "uint32"
        }
      ],
      "name": "getEmissionRate",
      "outputs": [
        {
          "internalType": "uint256",
          "name": "",
          "type": "uint256"
        }
      ],
      "stateMutability": "view",
      "type": "function"
    },
    {
      "inputs": [
        {
          "internalType": "uint32",
          "name": "_index",
          "type": "uint32"
        }
      ],
      "name": "getFeeRate",
      "outputs": [
        {
          "internalType": "uint128",
          "name": "",
          "type": "uint128"
        }
      ],
      "stateMutability": "view",
      "type": "function"
    },
    {
      "inputs": [
        {
          "internalType": "uint32",
          "name": "_index",
          "type": "uint32"
        },
        {
          "internalType": "address",
          "name": "_streamer",
          "type": "address"
        }
      ],
      "name": "getIDAShares",
      "outputs": [
        {
          "internalType": "bool",
          "name": "_exist",
          "type": "bool"
        },
        {
          "internalType": "bool",
          "name": "_approved",
          "type": "bool"
        },
        {
          "internalType": "uint128",
          "name": "_units",
          "type": "uint128"
        },
        {
          "internalType": "uint256",
          "name": "_pendingDistribution",
          "type": "uint256"
        }
      ],
      "stateMutability": "view",
      "type": "function"
    },
    {
      "inputs": [],
      "name": "getInputToken",
      "outputs": [
        {
          "internalType": "contract ISuperToken",
          "name": "",
          "type": "address"
        }
      ],
      "stateMutability": "view",
      "type": "function"
    },
    {
      "inputs": [],
      "name": "getLastDistributionAt",
      "outputs": [
        {
          "internalType": "uint256",
          "name": "",
          "type": "uint256"
        }
      ],
      "stateMutability": "view",
      "type": "function"
    },
    {
      "inputs": [
        {
          "internalType": "contract ISuperToken",
          "name": "token",
          "type": "address"
        }
      ],
      "name": "getOracleInfo",
      "outputs": [
        {
          "components": [
            {
              "internalType": "uint256",
              "name": "requestId",
              "type": "uint256"
            },
            {
              "internalType": "uint256",
              "name": "usdPrice",
              "type": "uint256"
            },
            {
              "internalType": "uint256",
              "name": "lastUpdatedAt",
              "type": "uint256"
            }
          ],
          "internalType": "struct REXMarket.OracleInfo",
          "name": "",
          "type": "tuple"
        }
      ],
      "stateMutability": "view",
      "type": "function"
    },
    {
      "inputs": [
        {
          "internalType": "uint32",
          "name": "_index",
          "type": "uint32"
        }
      ],
      "name": "getOutputPool",
      "outputs": [
        {
          "components": [
            {
              "internalType": "contract ISuperToken",
              "name": "token",
              "type": "address"
            },
            {
              "internalType": "uint128",
              "name": "feeRate",
              "type": "uint128"
            },
            {
              "internalType": "uint256",
              "name": "emissionRate",
              "type": "uint256"
            },
            {
              "internalType": "uint128",
              "name": "shareScaler",
              "type": "uint128"
            }
          ],
          "internalType": "struct REXMarket.OutputPool",
          "name": "",
          "type": "tuple"
        }
      ],
      "stateMutability": "view",
      "type": "function"
    },
    {
      "inputs": [],
      "name": "getRateTolerance",
      "outputs": [
        {
          "internalType": "uint256",
          "name": "",
          "type": "uint256"
        }
      ],
      "stateMutability": "view",
      "type": "function"
    },
    {
      "inputs": [
        {
          "internalType": "address",
          "name": "_streamer",
          "type": "address"
        },
        {
          "internalType": "contract ISuperToken",
          "name": "_token",
          "type": "address"
        }
      ],
      "name": "getStreamRate",
      "outputs": [
        {
          "internalType": "int96",
          "name": "_requesterFlowRate",
          "type": "int96"
        }
      ],
      "stateMutability": "view",
      "type": "function"
    },
    {
      "inputs": [],
      "name": "getTellorOracle",
      "outputs": [
        {
          "internalType": "address",
          "name": "",
          "type": "address"
        }
      ],
      "stateMutability": "view",
      "type": "function"
    },
    {
      "inputs": [],
      "name": "getTotalInflow",
      "outputs": [
        {
          "internalType": "int96",
          "name": "",
          "type": "int96"
        }
      ],
      "stateMutability": "view",
      "type": "function"
    },
    {
      "inputs": [
        {
          "internalType": "contract ISuperToken",
          "name": "_inputToken",
          "type": "address"
        },
        {
          "internalType": "uint256",
          "name": "_rateTolerance",
          "type": "uint256"
        },
        {
          "internalType": "contract ITellor",
          "name": "_tellor",
          "type": "address"
        },
        {
          "internalType": "uint256",
          "name": "_inputTokenRequestId",
          "type": "uint256"
        },
        {
          "internalType": "uint128",
          "name": "_affiliateFee",
          "type": "uint128"
        },
        {
          "internalType": "uint128",
          "name": "_feeRate",
          "type": "uint128"
        }
      ],
      "name": "initializeMarket",
      "outputs": [],
      "stateMutability": "nonpayable",
      "type": "function"
    },
    {
      "inputs": [
        {
          "internalType": "contract ITellor",
          "name": "_tellor",
          "type": "address"
        },
        {
          "internalType": "contract ISuperToken",
          "name": "_inputToken",
          "type": "address"
        },
        {
          "internalType": "uint256",
          "name": "_rateTolerance",
          "type": "uint256"
        },
        {
          "internalType": "uint256",
          "name": "_inputTokenRequestId",
          "type": "uint256"
        },
        {
          "internalType": "contract ISuperToken",
          "name": "_outputToken",
          "type": "address"
        },
        {
          "internalType": "uint128",
          "name": "_feeRate",
          "type": "uint128"
        },
        {
          "internalType": "uint256",
          "name": "_ouptutTokenRequestId",
          "type": "uint256"
        },
        {
          "internalType": "uint128",
          "name": "_shareScaler",
          "type": "uint128"
        }
      ],
      "name": "initializeOneWayMarket",
      "outputs": [],
      "stateMutability": "nonpayable",
      "type": "function"
    },
    {
      "inputs": [],
      "name": "isAppJailed",
      "outputs": [
        {
          "internalType": "bool",
          "name": "",
          "type": "bool"
        }
      ],
      "stateMutability": "view",
      "type": "function"
    },
    {
      "inputs": [],
      "name": "owner",
      "outputs": [
        {
          "internalType": "address",
          "name": "",
          "type": "address"
        }
      ],
      "stateMutability": "view",
      "type": "function"
    },
    {
      "inputs": [],
      "name": "renounceOwnership",
      "outputs": [],
      "stateMutability": "nonpayable",
      "type": "function"
    },
    {
      "inputs": [
        {
          "internalType": "uint32",
          "name": "_index",
          "type": "uint32"
        },
        {
          "internalType": "uint128",
          "name": "_emissionRate",
          "type": "uint128"
        }
      ],
      "name": "setEmissionRate",
      "outputs": [],
      "stateMutability": "nonpayable",
      "type": "function"
    },
    {
      "inputs": [
        {
          "internalType": "uint32",
          "name": "_index",
          "type": "uint32"
        },
        {
          "internalType": "uint128",
          "name": "_feeRate",
          "type": "uint128"
        }
      ],
      "name": "setFeeRate",
      "outputs": [],
      "stateMutability": "nonpayable",
      "type": "function"
    },
    {
      "inputs": [
        {
          "internalType": "uint256",
          "name": "_rate",
          "type": "uint256"
        }
      ],
      "name": "setRateTolerance",
      "outputs": [],
      "stateMutability": "nonpayable",
      "type": "function"
    },
    {
      "inputs": [
        {
          "internalType": "address",
          "name": "_router",
          "type": "address"
        }
      ],
      "name": "setRouter",
      "outputs": [],
      "stateMutability": "nonpayable",
      "type": "function"
    },
    {
      "inputs": [
        {
          "internalType": "address",
          "name": "newOwner",
          "type": "address"
        }
      ],
      "name": "transferOwnership",
      "outputs": [],
      "stateMutability": "nonpayable",
      "type": "function"
    },
    {
      "inputs": [
        {
          "internalType": "contract ISuperToken",
          "name": "_token",
          "type": "address"
        }
      ],
      "name": "updateTokenPrice",
      "outputs": [],
      "stateMutability": "nonpayable",
      "type": "function"
    },
    {
      "inputs": [],
      "name": "updateTokenPrices",
      "outputs": [],
      "stateMutability": "nonpayable",
      "type": "function"
    }
  ],
  "bytecode": "0x6080604052600f80546001600160a01b031916731b02da8cb0d097eb8d57a175b88c7d8b479975061790553480156200003757600080fd5b5060405162005583380380620055838339810160408190526200005a91620002e4565b8585858585856200006b33620001ad565b600180546001600160a01b038088166001600160a01b0319928316179092556002805487841690831617905560038054868416908316179055600e805492841692909116919091179055620000c086620001fd565b815160019015620001395760015460405163bd1c448b60e01b81526001600160a01b039091169063bd1c448b90620000ff908490879060040162000402565b600060405180830381600087803b1580156200011a57600080fd5b505af11580156200012f573d6000803e3d6000fd5b505050506200019a565b6001546040516315a722b960e31b8152600481018390526001600160a01b039091169063ad3915c890602401600060405180830381600087803b1580156200018057600080fd5b505af115801562000195573d6000803e3d6000fd5b505050505b505050505050505050505050506200049d565b600080546001600160a01b038381166001600160a01b0319831681178455604051919092169283917f8be0079c531659141344cd1fd0a4f28419497f9722a3daafe3b4186f6b6457e09190a35050565b6000546001600160a01b031633146200025d5760405162461bcd60e51b815260206004820181905260248201527f4f776e61626c653a2063616c6c6572206973206e6f7420746865206f776e657260448201526064015b60405180910390fd5b6001600160a01b038116620002c45760405162461bcd60e51b815260206004820152602660248201527f4f776e61626c653a206e6577206f776e657220697320746865207a65726f206160448201526564647265737360d01b606482015260840162000254565b620002cf81620001ad565b50565b8051620002df8162000487565b919050565b60008060008060008060c08789031215620002fd578182fd5b86516200030a8162000487565b60208801519096506200031d8162000487565b6040880151909550620003308162000487565b6060880151909450620003438162000487565b60808801519093506001600160401b038082111562000360578384fd5b818901915089601f83011262000374578384fd5b81518181111562000389576200038962000471565b604051601f8201601f19908116603f01168101908382118183101715620003b457620003b462000471565b816040528281528c6020848701011115620003cd578687fd5b620003e08360208301602088016200043e565b8096505050505050620003f660a08801620002d2565b90509295509295509295565b8281526040602082015260008251806040840152620004298160608501602087016200043e565b601f01601f1916919091016060019392505050565b60005b838110156200045b57818101518382015260200162000441565b838111156200046b576000848401525b50505050565b634e487b7160e01b600052604160045260246000fd5b6001600160a01b0381168114620002cf57600080fd5b6150d680620004ad6000396000f3fe608060405234801561001057600080fd5b50600436106102065760003560e01c806383688be61161011a578063c12fc38b116100ad578063e52e43da1161007c578063e52e43da1461057a578063e8e75cbd1461058b578063f19a31c2146105d5578063f2fde38b146105e8578063fe1b09dd146105fb57600080fd5b8063c12fc38b14610544578063c24c14e014610557578063cdf5bd751461055f578063d86ed3e51461056757600080fd5b806393a73379116100e957806393a73379146104d6578063b9bb0229146104e9578063bfdb6b04146104fc578063c0d786551461053157600080fd5b806383688be61461048d578063884d1f40146104a05780638d21b593146104b35780638da5cb5b146104c557600080fd5b8063416c339d1161019d5780635c56bdc41161016c5780635c56bdc41461035f5780635ce81f991461043a5780635f9e7d771461044d578063715018a61461046057806380f8620f1461046857600080fd5b8063416c339d1461030b57806344a8ee241461032657806353c11f991461033957806358a61d3d1461034c57600080fd5b8063230dbd29116101d9578063230dbd29146102985780632caac08b146102b857806330d9c915146102c05780633fcad964146102db57600080fd5b80630c9dfd1e1461020b5780630f2dc3d61461025857806315843a011461026d5780632174661514610285575b600080fd5b61021e61021936600461488e565b610624565b60405161024f9493929190931515845291151560208401526001600160801b03166040830152606082015260800190565b60405180910390f35b61026b61026636600461408e565b6106e3565b005b610275610889565b604051901515815260200161024f565b61026b61029336600461408e565b61090a565b6102ab6102a6366004614435565b6109ec565b60405161024f919061495a565b61026b610b41565b6102ab6102ce366004614399565b6060979650505050505050565b6102ee6102e93660046147d7565b610ebd565b60408051931515845260208401929092529082015260600161024f565b610313611081565b604051600b9190910b815260200161024f565b61026b6103343660046144fc565b61110b565b6102ab610347366004614435565b611360565b61026b61035a3660046147d7565b6114b9565b6103ef61036d366004614874565b6040805160808101825260008082526020820181905291810182905260608101919091525063ffffffff166000908152600b6020908152604091829020825160808101845281546001600160a01b0316815260018201546001600160801b03908116938201939093526002820154938101939093526003015416606082015290565b60405161024f919081516001600160a01b031681526020808301516001600160801b039081169183019190915260408084015190830152606092830151169181019190915260800190565b61026b6104483660046148a9565b6114e8565b6102ab61045b366004614399565b61153b565b61026b6115c6565b6004546001600160a01b03165b6040516001600160a01b03909116815260200161024f565b61026b61049b36600461455a565b6115fc565b6102ab6104ae366004614399565b61170f565b6007545b60405190815260200161024f565b6000546001600160a01b0316610475565b61026b6104e43660046145c9565b6117bf565b6103136104f73660046140fe565b611a8e565b61050f61050a36600461408e565b611b25565b604080518251815260208084015190820152918101519082015260600161024f565b61026b61053f36600461408e565b611b8b565b6102ab610552366004614291565b611bd7565b61026b612210565b6006546104b7565b6102ab610575366004614435565b612275565b6005546001600160a01b0316610475565b6105bd610599366004614874565b63ffffffff166000908152600b60205260409020600101546001600160801b031690565b6040516001600160801b03909116815260200161024f565b61026b6105e33660046148a9565b6123b8565b61026b6105f636600461408e565b61241b565b6104b7610609366004614874565b63ffffffff166000908152600b602052604090206002015490565b60035463ffffffff83166000818152600b6020526040808220549051635b53405160e01b81526001600160a01b0391821660048201523060248201526044810193909352848116606484015290928392839283921690635b5340519060840160806040518083038186803b15801561069b57600080fd5b505afa1580156106af573d6000803e3d6000fd5b505050506040513d601f19601f820116820180604052508101906106d391906141d2565b9299919850965090945092505050565b600154604051636b4f333560e01b81523060048201526000916001600160a01b031690636b4f33359060240160206040518083038186803b15801561072757600080fd5b505afa15801561073b573d6000803e3d6000fd5b505050506040513d601f19601f8201168201806040525081019061075f91906141b8565b90508061079d5760405162461bcd60e51b8152602060048201526007602482015266085a985a5b195960ca1b60448201526064015b60405180910390fd5b6001546002546005546040805160008152602081019091526001600160a01b03938416936339255d5b93811692635a5999e360e11b926107e892909116908890309060448101614a3e565b60408051601f198184030181529181526020820180516001600160e01b03166001600160e01b03199485161790525160e085901b909216825261082e929160040161496d565b600060405180830381600087803b15801561084857600080fd5b505af115801561085c573d6000803e3d6000fd5b505050506040513d6000823e601f3d908101601f191682016040526108849190810190614305565b505050565b600154604051636b4f333560e01b81523060048201526000916001600160a01b031690636b4f33359060240160206040518083038186803b1580156108cd57600080fd5b505afa1580156108e1573d6000803e3d6000fd5b505050506040513d601f19601f8201168201806040525081019061090591906141b8565b905090565b6001600160a01b0381166000908152600a60205260408120548190819061093090610ebd565b925092509250826109765760405162461bcd60e51b815260206004820152601060248201526f2167657443757272656e7456616c756560801b6044820152606401610794565b610982610e1042614f35565b8110156109c15760405162461bcd60e51b815260206004820152600d60248201526c2163757272656e7456616c756560981b6044820152606401610794565b6001600160a01b039093166000908152600a6020526040902060018101919091556002019190915550565b60606109f66124b3565b610a008a8a6124f5565b6005546001600160a01b038b81169116141580610a235750610a21896125d2565b155b15610a675782828080601f016020809104026020016040519081016040528093929190818152602001838380828437600092019190915250929350610b3492505050565b82828080601f0160208091040260200160405190810160405280939291908181526020018383808284376000920182905250939450839250610aae91508a9050898e61266d565b5091509150610abd8c8261271b565b6000610acb87890189614656565b9050610ad56127b1565b15610ae657610ae384611bd7565b93505b60006040518060800160405280856001600160a01b0316815260200183600b0b815260200184600b0b81526020018f6001600160a01b03168152509050610b2d858261290b565b9450505050505b9998505050505050505050565b6000546001600160a01b03163314610b6b5760405162461bcd60e51b815260040161079490614b45565b60025460055460405163e8e7e2d160e01b81526001600160a01b03918216600482015230602482015291169063e8e7e2d19060440160206040518083038186803b158015610bb857600080fd5b505afa158015610bcc573d6000803e3d6000fd5b505050506040513d601f19601f82011682018060405250810190610bf09190614672565b600b0b15610c315760405162461bcd60e51b815260206004820152600e60248201526d217a65726f53747265616d65727360901b6044820152606401610794565b6005546001600160a01b031663a9059cbb610c546000546001600160a01b031690565b6005546040516370a0823160e01b81523060048201526001600160a01b03909116906370a082319060240160206040518083038186803b158015610c9757600080fd5b505afa158015610cab573d6000803e3d6000fd5b505050506040513d601f19601f82011682018060405250810190610ccf9190614279565b6040516001600160e01b031960e085901b1681526001600160a01b0390921660048301526024820152604401602060405180830381600087803b158015610d1557600080fd5b505af1158015610d29573d6000803e3d6000fd5b505050506040513d601f19601f82011682018060405250810190610d4d91906141b8565b5060005b600d5460ff1663ffffffff82161015610eba5763ffffffff81166000908152600b60205260409020546001600160a01b031663a9059cbb610d9a6000546001600160a01b031690565b63ffffffff84166000908152600b6020526040908190205490516370a0823160e01b81523060048201526001600160a01b03909116906370a082319060240160206040518083038186803b158015610df157600080fd5b505afa158015610e05573d6000803e3d6000fd5b505050506040513d601f19601f82011682018060405250810190610e299190614279565b6040516001600160e01b031960e085901b1681526001600160a01b0390921660048301526024820152604401602060405180830381600087803b158015610e6f57600080fd5b505af1158015610e83573d6000803e3d6000fd5b505050506040513d601f19601f82011682018060405250810190610ea791906141b8565b5080610eb281614f9b565b915050610d51565b50565b600480546040516311bbb87160e21b81529182018390526000918291829182916001600160a01b0316906346eee1c49060240160206040518083038186803b158015610f0857600080fd5b505afa158015610f1c573d6000803e3d6000fd5b505050506040513d601f19601f82011682018060405250810190610f409190614279565b6004549091506001600160a01b03166377fbb66386610f60600185614f35565b6040516001600160e01b031960e085901b1681526004810192909252602482015260440160206040518083038186803b158015610f9c57600080fd5b505afa158015610fb0573d6000803e3d6000fd5b505050506040513d601f19601f82011682018060405250810190610fd49190614279565b600480546040516393fa491560e01b81529294506001600160a01b0316916393fa49159161100f918991879101918252602082015260400190565b60206040518083038186803b15801561102757600080fd5b505afa15801561103b573d6000803e3d6000fd5b505050506040513d601f19601f8201168201806040525081019061105f9190614279565b9250821561107157600193505061107a565b60008093509350505b9193909250565b60025460055460405163e8e7e2d160e01b81526001600160a01b039182166004820152306024820152600092919091169063e8e7e2d19060440160206040518083038186803b1580156110d357600080fd5b505afa1580156110e7573d6000803e3d6000fd5b505050506040513d601f19601f820116820180604052508101906109059190614672565b6000546001600160a01b031633146111355760405162461bcd60e51b815260040161079490614b45565b816111705760405162461bcd60e51b815260206004820152600b60248201526a085d985b1a5914995c525960aa1b6044820152606401610794565b6001600160a01b0385166000908152600a6020526040902054156111c05760405162461bcd60e51b815260206004820152600760248201526621756e6971756560c81b6044820152606401610794565b600d54600560ff909116106112085760405162461bcd60e51b815260206004820152600e60248201526d546f6f206d616e7920706f6f6c7360901b6044820152606401610794565b604080516080810182526001600160a01b038088168083526001600160801b0380891660208086019182528587018a815288841660608801908152600d805460ff9081166000908152600b86528b81208b5181549b166001600160a01b0319909b169a909a178a55955160018a0180549189166001600160801b0319928316179055935160028a01559151600390980180549890961697909216969096179093558254938252600c905294909420805463ffffffff1916918316919091179055915490916112d7911687612a7b565b600d805460ff169060006112ea83614fbf565b825460ff9182166101009390930a92830291909202199091161790555060408051606081018252848152600060208083018281528385018381526001600160a01b038c168452600a909252939091208251815592516001840155516002909201919091556113578761090a565b50505050505050565b606061136a6124b3565b6113748a8a6124f5565b82828080601f01602080910402602001604051908101604052809392919081815260200183838082843760009201829052509394506113b992505050878901896140c6565b5090506000806113cb878901896147ef565b9150915060006040518060800160405280856001600160a01b0316815260200183600b0b81526020016000600b0b81526020018f6001600160a01b03168152509050611417858261290b565b6005546040516323b872dd60e01b81523060048201526001600160a01b038781166024830152604482018790529297509116906323b872dd90606401602060405180830381600087803b15801561146d57600080fd5b505af192505050801561149d575060408051601f3d908101601f1916820190925261149a918101906141b8565b60015b6114a6576114a8565b505b505050509998505050505050505050565b6000546001600160a01b031633146114e35760405162461bcd60e51b815260040161079490614b45565b600755565b6000546001600160a01b031633146115125760405162461bcd60e51b815260040161079490614b45565b63ffffffff9091166000908152600b602052604090206001600160801b03909116600290910155565b60606115456124b3565b61154f88886124f5565b600080600061155f88888d61266d565b925092509250600061158582846bffffffffffffffffffffffff16600560010154612b12565b905080836040516020016115a6929190918252600b0b602082015260400190565b604051602081830303815290604052945050505050979650505050505050565b6000546001600160a01b031633146115f05760405162461bcd60e51b815260040161079490614b45565b6115fa6000612b3f565b565b6000546001600160a01b031633146116265760405162461bcd60e51b815260040161079490614b45565b6005546001600160a01b0316156116755760405162461bcd60e51b8152602060048201526013602482015272105b1c9958591e481a5b9a5d1a585b1a5e9959606a1b6044820152606401610794565b600580546001600160a01b038089166001600160a01b0319928316811790935560078890556001600160801b03848116908616600160801b026001600160801b0319161760085560048054918816919092161790556040805160608101825285815260006020808301828152838501838152958352600a90915292902081518155915160018301559151600291909101556113578761090a565b6060611729886005546001600160a01b0391821691161490565b158061173b5750611739876125d2565b155b1561177f5782828080601f0160208091040260200160405190810160405280939291908181526020018383808284376000920191909152509293506117b492505050565b600061178c86868b61266d565b5060408051600b83900b60208201529193500190506040516020818303038152906040529150505b979650505050505050565b6000546001600160a01b031633146117e95760405162461bcd60e51b815260040161079490614b45565b600054600160a81b900460ff1661180d57600054600160a01b900460ff1615611811565b303b155b6118745760405162461bcd60e51b815260206004820152602e60248201527f496e697469616c697a61626c653a20636f6e747261637420697320616c72656160448201526d191e481a5b9a5d1a585b1a5e995960921b6064820152608401610794565b600054600160a81b900460ff1615801561189e576000805461ffff60a01b191661010160a01b1790555b6118af88888b89620186a0896115fc565b6118bd85856000868661110b565b600f5460055460408051631dce337960e31b81529051611958936001600160a01b03908116936000199391169163ee719bc891600480820192602092909190829003018186803b15801561191057600080fd5b505afa158015611924573d6000803e3d6000fd5b505050506040513d601f19601f8201168201806040525081019061194891906140aa565b6001600160a01b03169190612b8f565b600f5460008052600b60209081526000805160206150818339815191525460408051631dce337960e31b815290516119bf946001600160a01b0390811694600019949091169263ee719bc89260048083019392829003018186803b15801561191057600080fd5b60055460408051631dce337960e31b81529051611a0b926001600160a01b03169160001991839163ee719bc8916004808301926020929190829003018186803b15801561191057600080fd5b60008052600b60209081526000805160206150818339815191525460408051631dce337960e31b81529051611a6f936001600160a01b039093169260001992849263ee719bc892600480840193919291829003018186803b15801561191057600080fd5b8015611a83576000805460ff60a81b191690555b505050505050505050565b600254604051631cd43d1160e31b81526001600160a01b0383811660048301528481166024830152306044830152600092169063e6a1e8889060640160806040518083038186803b158015611ae257600080fd5b505afa158015611af6573d6000803e3d6000fd5b505050506040513d601f19601f82011682018060405250810190611b1a9190614813565b509095945050505050565b611b4960405180606001604052806000815260200160008152602001600081525090565b506001600160a01b03166000908152600a6020908152604091829020825160608101845281548152600182015492810192909252600201549181019190915290565b6000546001600160a01b03163314611bb55760405162461bcd60e51b815260040161079490614b45565b600f80546001600160a01b0319166001600160a01b0392909216919091179055565b80611be4610e1042614f35565b600080516020615081833981519152546001600160a01b03166000908152600a60205260409020600201541015611c4d5760405162461bcd60e51b815260206004820152600d60248201526c2163757272656e7456616c756560981b6044820152606401610794565b60055460008052600b602052600080516020615081833981519152546040516370a0823160e01b8152306004820152611cfa926001600160a01b0390811692169082906370a082319060240160206040518083038186803b158015611cb157600080fd5b505afa158015611cc5573d6000803e3d6000fd5b505050506040513d601f19601f82011682018060405250810190611ce99190614279565b611cf542610e10614c98565b612c78565b506000808052600b602052600080516020615081833981519152546040516370a0823160e01b81523060048201526001600160a01b03909116906370a082319060240160206040518083038186803b158015611d5557600080fd5b505afa158015611d69573d6000803e3d6000fd5b505050506040513d601f19601f82011682018060405250810190611d8d9190614279565b6003546000808052600b60205260008051602061508183398151915254604051632266eabb60e21b81526001600160a01b0391821660048201523060248201526044810183905260648101859052939450909291169063899baaec90608401604080518083038186803b158015611e0357600080fd5b505afa158015611e17573d6000803e3d6000fd5b505050506040513d601f19601f82011682018060405250810190611e3b9190614850565b50905080611e4a575050919050565b600854600090620f424090611e68906001600160801b031684614e9f565b611e729190614cd6565b90506000611e808284614f35565b9050611eb16040518060400160405280600d81526020016c6f757074757442616c616e636560981b815250856132fe565b611edf6040518060400160405280600c81526020016b1858dd1d585b105b5bdd5b9d60a21b815250846132fe565b611f0e6040518060400160405280600d81526020016c1999595cd0dbdb1b1958dd1959609a1b815250836132fe565b611f3a6040518060400160405280600a815260200169191a5cdd105b5bdd5b9d60b21b815250826132fe565b6000808052600b60205260008051602061508183398151915254611f6a919085906001600160a01b031688613343565b60008052600b602090815260008051602061508183398151915254604080518781529283018690526001600160a01b03909116908201529095507fed4b43d1c43fa6de2432cc50d2bbc8db51d9ce0d2095d0a5cfac618764e9fe589060600160405180910390a160015b600d5460ff1663ffffffff821610156122015763ffffffff81166000908152600b6020526040908190205490516370a0823160e01b81523060048201526001600160a01b03909116906370a082319060240160206040518083038186803b15801561203e57600080fd5b505afa158015612052573d6000803e3d6000fd5b505050506040513d601f19601f820116820180604052508101906120769190614279565b945084156121ef576008546001600160801b0316156121235763ffffffff81166000908152600b60205260409020546120bc90829087906001600160a01b031689613343565b63ffffffff82166000908152600b60209081526040918290205482518981529182018790526001600160a01b03168183015290519197507fed4b43d1c43fa6de2432cc50d2bbc8db51d9ce0d2095d0a5cfac618764e9fe58919081900360600190a16121ef565b63ffffffff81166000908152600b60205260409020600201546006546121499042614f35565b6121539190614e9f565b9350848410156121ef5763ffffffff81166000908152600b602052604090205461218a90829086906001600160a01b031689613343565b63ffffffff82166000908152600b60209081526040808320548151898152928301939093526001600160a01b039092168183015290519197507fed4b43d1c43fa6de2432cc50d2bbc8db51d9ce0d2095d0a5cfac618764e9fe58919081900360600190a15b806121f981614f9b565b915050611fd4565b50504260065550919392505050565b600554612225906001600160a01b031661090a565b60005b600d5460ff1663ffffffff82161015610eba5763ffffffff81166000908152600b6020526040902054612263906001600160a01b031661090a565b8061226d81614f9b565b915050612228565b606061227f6124b3565b6122898a8a6124f5565b6005546001600160a01b038b811691161415806122ac57506122aa896125d2565b155b156122f05782828080601f016020809104026020016040519081016040528093929190818152602001838380828437600092019190915250929350610b3492505050565b82828080601f01602080910402602001604051908101604052809392919081815260200183838082843760009201919091525092935061233392506127b1915050565b156123445761234181611bd7565b90505b60008061235289898e61266d565b50915091506123618c8261271b565b61236b838361353a565b604080516080810182526001600160a01b03808516825260006020830152600b84900b92820192909252908d1660608201526123a7848261290b565b9d9c50505050505050505050505050565b6000546001600160a01b031633146123e25760405162461bcd60e51b815260040161079490614b45565b63ffffffff919091166000908152600b6020526040902060010180546001600160801b0319166001600160801b03909216919091179055565b6000546001600160a01b031633146124455760405162461bcd60e51b815260040161079490614b45565b6001600160a01b0381166124aa5760405162461bcd60e51b815260206004820152602660248201527f4f776e61626c653a206e6577206f776e657220697320746865207a65726f206160448201526564647265737360d01b6064820152608401610794565b610eba81612b3f565b6001546001600160a01b031633146115fa5760405162461bcd60e51b8152602060048201526005602482015264085a1bdcdd60da1b6044820152606401610794565b6124fe816125d2565b15612555576005546001600160a01b038381169116146125515760405162461bcd60e51b815260206004820152600e60248201526d085a5b9c1d5d1058d8d95c1d195960921b6044820152606401610794565b5050565b61255e8161366b565b15612551576001600160a01b038083166000818152600c602090815260408083205463ffffffff168352600b909152902054909116146125515760405162461bcd60e51b815260206004820152600f60248201526e085bdd5d1c1d5d1058d8d95c1d1959608a1b6044820152606401610794565b60007fa9214cc96615e0085d3bb077758db69497dc2dce3b2b1e97bc93c3d18d83efd3826001600160a01b0316637730599e6040518163ffffffff1660e01b815260040160206040518083038186803b15801561262e57600080fd5b505afa158015612642573d6000803e3d6000fd5b505050506040513d601f19601f820116820180604052508101906126669190614279565b1492915050565b6000808061267d858701876140c6565b50600254604051631cd43d1160e31b81526001600160a01b038781166004830152808416602483015230604483015292955091169063e6a1e8889060640160806040518083038186803b1580156126d357600080fd5b505afa1580156126e7573d6000803e3d6000fd5b505050506040513d601f19601f8201168201806040525081019061270b9190614813565b5094989097509095509350505050565b6001600160a01b0382166000908152600c602090815260408083205463ffffffff168352600b90915290206003015461275f906001600160801b03166103e8614e70565b81600b0b61276d9190614fdf565b6001600160801b0316156125515760405162461bcd60e51b815260206004820152600b60248201526a6e6f745363616c61626c6560a81b6044820152606401610794565b6003546000808052600b602052600080516020615081833981519152546040516323fc23f360e01b81526001600160a01b03918216600482015230602482015260448101839052919283928392909116906323fc23f39060640160806040518083038186803b15801561282357600080fd5b505afa158015612837573d6000803e3d6000fd5b505050506040513d601f19601f8201168201806040525081019061285b919061421e565b6005546040516370a0823160e01b8152306004820152929650909450600093506001600160a01b031691506370a082319060240160206040518083038186803b1580156128a757600080fd5b505afa1580156128bb573d6000803e3d6000fd5b505050506040513d601f19601f820116820180604052508101906128df9190614279565b905060006128ed8385614c6d565b6001600160801b03161180156129035750600081115b935050505090565b8160008080612919856136c7565b92509250925060005b600d5460ff1663ffffffff82161015612a7157855163ffffffff82166000818152600b60205260409020546129649288929188906001600160a01b0316613c33565b94506129a9858263ffffffff166129836000546001600160a01b031690565b63ffffffff85166000908152600b602052604090205487906001600160a01b0316613c33565b600e548751604051630e9ebfbf60e01b81526001600160a01b039182166004820152929750612a5d92889263ffffffff8616921690630e9ebfbf9060240160206040518083038186803b1580156129ff57600080fd5b505afa158015612a13573d6000803e3d6000fd5b505050506040513d601f19601f82011682018060405250810190612a3791906140aa565b63ffffffff85166000908152600b602052604090205486906001600160a01b0316613c33565b945080612a6981614f9b565b915050612922565b5050505092915050565b6001546003546040805160008152602081019091526001600160a01b03928316926339255d5b921690636bc3c20560e11b90612abe908690889060448101614ab4565b60408051601f19818403018152918152602080830180516001600160e01b03166001600160e01b03199586161790528151600081529081019182905260e086901b909316905261082e9291602481016149b4565b6000818411612b215781612b23565b835b612b2d9042614f35565b612b379084614e9f565b949350505050565b600080546001600160a01b038381166001600160a01b0319831681178455604051919092169283917f8be0079c531659141344cd1fd0a4f28419497f9722a3daafe3b4186f6b6457e09190a35050565b604051636eb1769f60e11b81523060048201526001600160a01b038381166024830152600091839186169063dd62ed3e9060440160206040518083038186803b158015612bdb57600080fd5b505afa158015612bef573d6000803e3d6000fd5b505050506040513d601f19601f82011682018060405250810190612c139190614279565b612c1d9190614c98565b604080516001600160a01b038616602482015260448082018490528251808303909101815260649091019091526020810180516001600160e01b031663095ea7b360e01b179052909150612c72908590613d33565b50505050565b60008060006060600080896001600160a01b031663ee719bc86040518163ffffffff1660e01b815260040160206040518083038186803b158015612cbb57600080fd5b505afa158015612ccf573d6000803e3d6000fd5b505050506040513d601f19601f82011682018060405250810190612cf391906140aa565b9450886001600160a01b031663ee719bc86040518163ffffffff1660e01b815260040160206040518083038186803b158015612d2e57600080fd5b505afa158015612d42573d6000803e3d6000fd5b505050506040513d601f19601f82011682018060405250810190612d6691906140aa565b6040516308de640f60e11b8152600481018a90529094506001600160a01b038b16906311bcc81e90602401600060405180830381600087803b158015612dab57600080fd5b505af1158015612dbf573d6000803e3d6000fd5b50505050846001600160a01b031663313ce5676040518163ffffffff1660e01b815260040160206040518083038186803b158015612dfc57600080fd5b505afa158015612e10573d6000803e3d6000fd5b505050506040513d601f19601f82011682018060405250810190612e3491906148d4565b612e3f906012614f4c565b612e4a90600a614d2d565b6040516370a0823160e01b81523060048201526001600160a01b038716906370a082319060240160206040518083038186803b158015612e8957600080fd5b505afa158015612e9d573d6000803e3d6000fd5b505050506040513d601f19601f82011682018060405250810190612ec19190614279565b612ecb9190614e9f565b6001600160a01b03808b166000908152600a6020526040808220600190810154938f1683529120015491995090612f02908a614e9f565b612f0c9190614cd6565b600754909250620f424090612f219082614f35565b612f2b9084614e9f565b612f359190614cd6565b9150670de0b6b3a7640000846001600160a01b031663313ce5676040518163ffffffff1660e01b815260040160206040518083038186803b158015612f7957600080fd5b505afa158015612f8d573d6000803e3d6000fd5b505050506040513d601f19601f82011682018060405250810190612fb191906148d4565b612fbc90600a614d2d565b612fc69084614e9f565b612fd09190614cd6565b9150846001600160a01b031663313ce5676040518163ffffffff1660e01b815260040160206040518083038186803b15801561300b57600080fd5b505afa15801561301f573d6000803e3d6000fd5b505050506040513d601f19601f8201168201806040525081019061304391906148d4565b61304e906012614f4c565b61305990600a614d2d565b6130639089614cd6565b604080516002808252606082018352929a50919060208301908036833701905050925084836000815181106130a857634e487b7160e01b600052603260045260246000fd5b60200260200101906001600160a01b031690816001600160a01b03168152505083836001815181106130ea57634e487b7160e01b600052603260045260246000fd5b6001600160a01b039283166020918202929092010152600f546040516338ed173960e01b81529116906338ed173990613130908b90600090889030908e90600401614b7a565b600060405180830381600087803b15801561314a57600080fd5b505af115801561315e573d6000803e3d6000fd5b505050506040513d6000823e601f3d908101601f191682016040526131869190810190614110565b506040516370a0823160e01b81523060048201526001600160a01b038516906370a082319060240160206040518083038186803b1580156131c657600080fd5b505afa1580156131da573d6000803e3d6000fd5b505050506040513d601f19601f820116820180604052508101906131fe9190614279565b9050886001600160a01b03166345977d03856001600160a01b031663313ce5676040518163ffffffff1660e01b815260040160206040518083038186803b15801561324857600080fd5b505afa15801561325c573d6000803e3d6000fd5b505050506040513d601f19601f8201168201806040525081019061328091906148d4565b61328b906012614f4c565b61329690600a614d2d565b6132a09084614e9f565b6040518263ffffffff1660e01b81526004016132be91815260200190565b600060405180830381600087803b1580156132d857600080fd5b505af11580156132ec573d6000803e3d6000fd5b50929c9b505050505050505050505050565b6125518282604051602401613314929190614b23565b60408051601f198184030181529190526020810180516001600160e01b03166309710a9d60e41b179052613e05565b80518190613440576001546003546040805160008152602081019091526001600160a01b03928316926339255d5b921690635cb398e160e11b906133909088908b908b9060448101614ae4565b60408051601f19818403018152918152602080830180516001600160e01b03166001600160e01b03199586161790528151600081529081019182905260e086901b90931690526133e49291602481016149b4565b600060405180830381600087803b1580156133fe57600080fd5b505af1158015613412573d6000803e3d6000fd5b505050506040513d6000823e601f3d908101601f1916820160405261343a9190810190614305565b50612b37565b6001546003546040805160008152602081019091526001600160a01b0392831692634329d293921690635cb398e160e11b906134859088908b908b9060448101614ae4565b60408051601f19818403018152918152602080830180516001600160e01b03166001600160e01b03199586161790528151600081529081019182905260e086901b90931690526134da929186602482016149f4565b600060405180830381600087803b1580156134f457600080fd5b505af1158015613508573d6000803e3d6000fd5b505050506040513d6000823e601f3d908101601f191682016040526135309190810190614338565b5095945050505050565b600154604051631fb6491d60e11b81526000916001600160a01b031690633f6c923a9061356b90869060040161495a565b60006040518083038186803b15801561358357600080fd5b505afa158015613597573d6000803e3d6000fd5b505050506040513d6000823e601f3d908101601f191682016040526135bf91908101906146d4565b9050606060008260a001515111156135f0578160a001518060200190518101906135e9919061468e565b9050613601565b506040805160208101909152600081525b600e54604051634a2f43a560e01b81526001600160a01b0390911690634a2f43a5906136339086908590600401614936565b600060405180830381600087803b15801561364d57600080fd5b505af1158015613661573d6000803e3d6000fd5b5050505050505050565b60007f8aedc3b5d4bf031e11a7e2940f7251c005698405d58e02e1c247fed3b1b3a674826001600160a01b0316637730599e6040518163ffffffff1660e01b815260040160206040518083038186803b15801561262e57600080fd5b60608101516001600160a01b03166000908152600c6020526040812054819081906137049063ffffffff166102196000546001600160a01b031690565b5060608701516001600160a01b03166000908152600c602090815260408083205463ffffffff168352600b90915290206003015490945061375192506001600160801b0316905083614e70565b600e548551604051630e9ebfbf60e01b81526001600160a01b039182166004820152929450600092911690630e9ebfbf9060240160206040518083038186803b15801561379d57600080fd5b505afa1580156137b1573d6000803e3d6000fd5b505050506040513d601f19601f820116820180604052508101906137d591906140aa565b90506001600160a01b038116156138635760608501516001600160a01b03166000908152600c60205260409020546138139063ffffffff1682610624565b5060608801516001600160a01b03166000908152600c602090815260408083205463ffffffff168352600b90915290206003015490945061386092506001600160801b0316905083614e70565b91505b6000856020015186604001516138799190614ebe565b905060008082600b0b131561394557600854620f4240906138a7906001600160801b0316600b85900b614e9f565b6138b19190614cd6565b90506001600160a01b0383161561393457600854620f4240906138e490600160801b90046001600160801b031683614e70565b6138ee9190614cb0565b6138f89085614c6d565b600854909450620f42409061391d90600160801b90046001600160801b031683614e70565b6139279190614cb0565b6139319082614f0d565b90505b61393e8186614c6d565b9450613a73565b61395182600019614dda565b600854909250620f424090613973906001600160801b0316600b85900b614e9f565b61397d9190614cd6565b90506001600160a01b03831615613a45576008546001600160801b0380861691620f4240916139b491600160801b90041684614e70565b6139be9190614cb0565b6001600160801b0316116139fd57600854620f4240906139ee90600160801b90046001600160801b031683614e70565b6139f89190614cb0565b6139ff565b835b613a099085614f0d565b600854909450620f424090613a2e90600160801b90046001600160801b031683614e70565b613a389190614cb0565b613a429082614f0d565b90505b846001600160801b0316816001600160801b031611613a645780613a66565b845b613a709086614f0d565b94505b600854620f424090613a8e906001600160801b031682614f0d565b8860400151600b0b613aa09190614e70565b613aaa9190614cb0565b9550613ae16040518060400160405280600a8152602001697573657253686172657360b01b815250876001600160801b03166132fe565b613b156040518060400160405280600981526020016864616f53686172657360b81b815250866001600160801b03166132fe565b613b4f6040518060400160405280600f81526020016e616666696c6961746553686172657360881b815250856001600160801b03166132fe565b60608701516001600160a01b03166000908152600c602090815260408083205463ffffffff168352600b909152902060030154613b95906001600160801b031685614cb0565b60608801516001600160a01b03166000908152600c602090815260408083205463ffffffff168352600b909152902060030154909450613bde906001600160801b031686614cb0565b60608801516001600160a01b03166000908152600c602090815260408083205463ffffffff168352600b909152902060030154909550613c27906001600160801b031687614cb0565b95505050509193909250565b60015460035460408051600081526020810190915287926001600160a01b0390811692634329d29392911690630465a56b60e31b90613c7d9087908b908b908b9060448101614a72565b60408051601f19818403018152918152602080830180516001600160e01b03166001600160e01b03199586161790528151600081529081019182905260e086901b9093169052613cd2929186602482016149f4565b600060405180830381600087803b158015613cec57600080fd5b505af1158015613d00573d6000803e3d6000fd5b505050506040513d6000823e601f3d908101601f19168201604052613d289190810190614338565b509695505050505050565b6000613d88826040518060400160405280602081526020017f5361666545524332303a206c6f772d6c6576656c2063616c6c206661696c6564815250856001600160a01b0316613e269092919063ffffffff16565b8051909150156108845780806020019051810190613da691906141b8565b6108845760405162461bcd60e51b815260206004820152602a60248201527f5361666545524332303a204552433230206f7065726174696f6e20646964206e6044820152691bdd081cdd58d8d9595960b21b6064820152608401610794565b80516a636f6e736f6c652e6c6f67602083016000808483855afa5050505050565b6060612b378484600085613e3c565b9392505050565b606082471015613e9d5760405162461bcd60e51b815260206004820152602660248201527f416464726573733a20696e73756666696369656e742062616c616e636520666f6044820152651c8818d85b1b60d21b6064820152608401610794565b6001600160a01b0385163b613ef45760405162461bcd60e51b815260206004820152601d60248201527f416464726573733a2063616c6c20746f206e6f6e2d636f6e74726163740000006044820152606401610794565b600080866001600160a01b03168587604051613f10919061491a565b60006040518083038185875af1925050503d8060008114613f4d576040519150601f19603f3d011682016040523d82523d6000602084013e613f52565b606091505b50915091506117b482828660608315613f6c575081613e35565b825115613f7c5782518084602001fd5b8160405162461bcd60e51b8152600401610794919061495a565b6000613fa9613fa484614c45565b614c14565b9050828152838383011115613fbd57600080fd5b613e35836020830184614f6f565b8051613fd681615047565b919050565b80518015158114613fd657600080fd5b80516001600160e01b031981168114613fd657600080fd5b60008083601f840112614014578182fd5b50813567ffffffffffffffff81111561402b578182fd5b60208301915083602082850101111561404357600080fd5b9250929050565b600082601f83011261405a578081fd5b613e3583835160208501613f96565b803563ffffffff81168114613fd657600080fd5b805160ff81168114613fd657600080fd5b60006020828403121561409f578081fd5b8135613e3581615047565b6000602082840312156140bb578081fd5b8151613e3581615047565b600080604083850312156140d8578081fd5b82356140e381615047565b915060208301356140f381615047565b809150509250929050565b600080604083850312156140d8578182fd5b60006020808385031215614122578182fd5b825167ffffffffffffffff80821115614139578384fd5b818501915085601f83011261414c578384fd5b81518181111561415e5761415e615031565b8060051b915061416f848301614c14565b8181528481019084860184860187018a1015614189578788fd5b8795505b838610156141ab57805183526001959095019491860191860161418d565b5098975050505050505050565b6000602082840312156141c9578081fd5b613e3582613fdb565b600080600080608085870312156141e7578182fd5b6141f085613fdb565b93506141fe60208601613fdb565b9250604085015161420e8161506b565b6060959095015193969295505050565b60008060008060808587031215614233578182fd5b61423c85613fdb565b9350602085015161424c8161506b565b604086015190935061425d8161506b565b606086015190925061426e8161506b565b939692955090935050565b60006020828403121561428a578081fd5b5051919050565b6000602082840312156142a2578081fd5b813567ffffffffffffffff8111156142b8578182fd5b8201601f810184136142c8578182fd5b80356142d6613fa482614c45565b8181528560208385010111156142ea578384fd5b81602084016020830137908101602001929092525092915050565b600060208284031215614316578081fd5b815167ffffffffffffffff81111561432c578182fd5b612b378482850161404a565b6000806040838503121561434a578182fd5b825167ffffffffffffffff80821115614361578384fd5b61436d8683870161404a565b93506020850151915080821115614382578283fd5b5061438f8582860161404a565b9150509250929050565b600080600080600080600060a0888a0312156143b3578485fd5b87356143be81615047565b965060208801356143ce81615047565b955060408801359450606088013567ffffffffffffffff808211156143f1578485fd5b6143fd8b838c01614003565b909650945060808a0135915080821115614415578384fd5b506144228a828b01614003565b989b979a50959850939692959293505050565b600080600080600080600080600060c08a8c031215614452578283fd5b893561445d81615047565b985060208a013561446d81615047565b975060408a0135965060608a013567ffffffffffffffff80821115614490578485fd5b61449c8d838e01614003565b909850965060808c01359150808211156144b4578485fd5b6144c08d838e01614003565b909650945060a08c01359150808211156144d8578384fd5b506144e58c828d01614003565b915080935050809150509295985092959850929598565b600080600080600060a08688031215614513578283fd5b853561451e81615047565b9450602086013561452e8161506b565b93506040860135925060608601359150608086013561454c8161506b565b809150509295509295909350565b60008060008060008060c08789031215614572578384fd5b863561457d81615047565b955060208701359450604087013561459481615047565b93506060870135925060808701356145ab8161506b565b915060a08701356145bb8161506b565b809150509295509295509295565b600080600080600080600080610100898b0312156145e5578182fd5b88356145f081615047565b9750602089013561460081615047565b96506040890135955060608901359450608089013561461e81615047565b935060a089013561462e8161506b565b925060c0890135915060e08901356146458161506b565b809150509295985092959890939650565b600060208284031215614667578081fd5b8135613e358161505c565b600060208284031215614683578081fd5b8151613e358161505c565b60006020828403121561469f578081fd5b815167ffffffffffffffff8111156146b5578182fd5b8201601f810184136146c5578182fd5b612b3784825160208401613f96565b6000602082840312156146e5578081fd5b815167ffffffffffffffff808211156146fc578283fd5b908301906101608286031215614710578283fd5b614718614bea565b6147218361407d565b815261472f6020840161407d565b60208201526040830151604082015261474a60608401613fcb565b606082015261475b60808401613feb565b608082015260a083015182811115614771578485fd5b61477d8782860161404a565b60a08301525060c083015160c082015260e083015160e08201526101009150818301518282015261012091506147b4828401613fcb565b8282015261014091506147c8828401613fcb565b91810191909152949350505050565b6000602082840312156147e8578081fd5b5035919050565b60008060408385031215614801578182fd5b8235915060208301356140f38161505c565b60008060008060808587031215614828578182fd5b84519350602085015161483a8161505c565b6040860151606090960151949790965092505050565b60008060408385031215614862578182fd5b8251915060208301516140f38161506b565b600060208284031215614885578081fd5b613e3582614069565b600080604083850312156148a0578182fd5b6140e383614069565b600080604083850312156148bb578182fd5b6148c483614069565b915060208301356140f38161506b565b6000602082840312156148e5578081fd5b613e358261407d565b60008151808452614906816020860160208601614f6f565b601f01601f19169290920160200192915050565b6000825161492c818460208701614f6f565b9190910192915050565b6001600160a01b0383168152604060208201819052600090612b37908301846148ee565b602081526000613e3560208301846148ee565b6001600160a01b0383168152606060208201819052600090614991908301846148ee565b8281036040938401526002815261060f60f31b6020820152919091019392505050565b6001600160a01b03841681526060602082018190526000906149d8908301856148ee565b82810360408401526149ea81856148ee565b9695505050505050565b6001600160a01b0385168152608060208201819052600090614a18908301866148ee565b8281036040840152614a2a81866148ee565b905082810360608401526117b481856148ee565b6001600160a01b0385811682528481166020830152831660408201526080606082018190526000906149ea908301846148ee565b6001600160a01b03868116825260208201869052841660408201526001600160801b038316606082015260a0608082018190526000906117b4908301846148ee565b60018060a01b0384168152826020820152606060408201526000614adb60608301846148ee565b95945050505050565b6001600160a01b038516815263ffffffff841660208201526001600160801b03831660408201526080606082018190526000906149ea908301846148ee565b604081526000614b3660408301856148ee565b90508260208301529392505050565b6020808252818101527f4f776e61626c653a2063616c6c6572206973206e6f7420746865206f776e6572604082015260600190565b600060a082018783526020878185015260a0604085015281875180845260c0860191508289019350845b81811015614bc95784516001600160a01b031683529383019391830191600101614ba4565b50506001600160a01b03969096166060850152505050608001529392505050565b604051610160810167ffffffffffffffff81118282101715614c0e57614c0e615031565b60405290565b604051601f8201601f1916810167ffffffffffffffff81118282101715614c3d57614c3d615031565b604052919050565b600067ffffffffffffffff821115614c5f57614c5f615031565b50601f01601f191660200190565b60006001600160801b03808316818516808303821115614c8f57614c8f615005565b01949350505050565b60008219821115614cab57614cab615005565b500190565b60006001600160801b0380841680614cca57614cca61501b565b92169190910492915050565b600082614ce557614ce561501b565b500490565b600181815b80851115614d25578160001904821115614d0b57614d0b615005565b80851615614d1857918102915b93841c9390800290614cef565b509250929050565b6000613e3560ff841683600082614d4657506001614dd4565b81614d5357506000614dd4565b8160018114614d695760028114614d7357614d8f565b6001915050614dd4565b60ff841115614d8457614d84615005565b50506001821b614dd4565b5060208310610133831016604e8410600b8410161715614db2575081810a614dd4565b614dbc8383614cea565b8060001904821115614dd057614dd0615005565b0290505b92915050565b600081600b0b83600b0b60016001605f1b0383821384841383830485118282161615614e0857614e08615005565b6b7fffffffffffffffffffffff1986851282811687830587121615614e2f57614e2f615005565b878712925085820587128484161615614e4a57614e4a615005565b85850587128184161615614e6057614e60615005565b5050509290910295945050505050565b60006001600160801b0380831681851681830481118215151615614e9657614e96615005565b02949350505050565b6000816000190483118215151615614eb957614eb9615005565b500290565b600081600b0b83600b0b8281128160016001605f1b031901831281151615614ee857614ee8615005565b8160016001605f1b03018313811615614f0357614f03615005565b5090039392505050565b60006001600160801b0383811690831681811015614f2d57614f2d615005565b039392505050565b600082821015614f4757614f47615005565b500390565b600060ff821660ff841680821015614f6657614f66615005565b90039392505050565b60005b83811015614f8a578181015183820152602001614f72565b83811115612c725750506000910152565b600063ffffffff80831681811415614fb557614fb5615005565b6001019392505050565b600060ff821660ff811415614fd657614fd6615005565b60010192915050565b60006001600160801b0380841680614ff957614ff961501b565b92169190910692915050565b634e487b7160e01b600052601160045260246000fd5b634e487b7160e01b600052601260045260246000fd5b634e487b7160e01b600052604160045260246000fd5b6001600160a01b0381168114610eba57600080fd5b80600b0b8114610eba57600080fd5b6001600160801b0381168114610eba57600080fdfedf7de25b7f1fd6d0b5205f0e18f1f35bd7b8d84cce336588d184533ce43a6f76a2646970667358221220c1f59c6f7898c780b4ad3e988819b4ebae8a8dadbaba2c334a307046c2af85fc64736f6c63430008040033",
  "linkReferences": {},
  "deployedLinkReferences": {}
}